:04000000FEEF7FF0A0
:10FE79000A790EF66EFE0EF76E000EF86E09006F27
:10FE890000D4FF10F000EE01F00D0EEE6AE806FD59
:10FE9900E1000150EF7FF0C496C386C394C498343F
:10FEA9000E3A010A6F330E146F0B0EED6F50955019
:10FEB900976099A30E0F6E570E0E6E020EE82EFE76
:10FEC900D70E2EFCD70F2EFAD700D0800E8F6E8E4C
:10FED90050E00B800AD8A474EF7FF076EF7FF06CC6
:10FEE900EF7FF0000E916E010E3701006F000EBA20
:10FEF9006F000EBB6F000EB86F000EB96F000EBE1B
:10FF09006F000EBF6F000EBC6F000EBD6F000EA21A
:10FF19006F000EA36F000EA06F000EA16F000EA65A
:10FF29006F000EA76F000EA46F000EA56F000EAA3A
:10FF39006F000EAB6F000EA86F000EA96F000EAE1A
:10FF49006F000EAF6F000EAC6F000EAD6F000EB2FA
:10FF59006F000EB36F000EB06F000EB16F000EB6DA
:10FF69006F000EB76F000EB46F000EB56F3F0E0332
:10FF79006FF10E046F050E056F0081008F3F0E9122
:10FF890016000E8F6E6F0038FE0EF0E00E0E16D8BA
:10FF9900A4D1EF7FF0D3EF7FF0C7EF7FF01F0E8F73
:10FFA900166F0038FE0EF0E00E0E16D8A4DFEF7FB4
:10FFB900F0E1EF7FF0D5EF7FF03701E0B7E7EF7FB2
:10FFC900F0E9EF7FF0F2EF7FF0030EE56F020EE646
:10FFD9006F000EE76F010EE86FE087BC76D00E0E5A
:10FFE9006ECA0EE82EFED70E2EFCD7F2EF7FF0FE7A
:07FFF900EF7FF03DEF7FF008
:020000040020DA
:10000000FF0FFF0FFF0FFF0FFF0FFF0FFF0FFF0F80
:020000040030CA
:0A0000008AFD27F79FFFFFFFFFFFB7
:00000001FF
