:04000000FEEF7FF0A0
:10FE5F000A5F0EF66EFE0EF76E000EF86E09006F5B
:10FE6F0000D4FF10F000EE01F00D0EEE6AE806FD73
:10FE7F00E1000143EF7FF0C496C490C386C394C4DE
:10FE8F0098330E3A010A6F340E146F0B0EED6F504C
:10FE9F009550976099330E0F6EBB0E0E6EE00EE805
:10FEAF002EFED70E2EFCD70F2EFAD7800E8F6E8E0A
:10FEBF0050E00B800AD8A467EF7FF069EF7FF05F07
:10FECF00EF7FF0000E916E010E3701006F000EBA3A
:10FEDF006F000EBB6F000EB86F000EB96F000EBE35
:10FEEF006F000EBF6F000EBC6F000EBD6F000EA235
:10FEFF006F000EA36F000EA06F000EA16F000EA675
:10FF0F006F000EA76F000EA46F000EA56F000EAA54
:10FF1F006F000EAB6F000EA86F000EA96F000EAE34
:10FF2F006F000EAF6F000EAC6F000EAD6F000EB214
:10FF3F006F000EB36F000EB06F000EB16F000EB6F4
:10FF4F006F000EB76F000EB46F000EB56F3F0E034C
:10FF5F006FF10E046F050E056F00913F0E911600A5
:10FF6F000E8F6E6F0038FE0EF0E00E0E16D8A4C383
:10FF7F00EF7FF0C5EF7FF0B9EF7FF01F0E8F166F99
:10FF8F000038FE0EF0E00E0E16D8A4D1EF7FF0D39E
:10FF9F00EF7FF0C7EF7FF0080E8F6E3701E0B7DB12
:10FFAF00EF7FF0DDEF7FF0EEEF7FF0000EE36F00FD
:10FFBF000EE46F000EE16F000EE26F030EE56F02AD
:10FFCF000EE66F000EE76F010EE86FE08780503787
:10FFDF0001F051BC70410E0E6EEE0EE82EFED70EE4
:10FFEF002EFCD700D0EEEF7FF0FEEF7FF030EF7FEB
:01FFFF00F011
:020000040020DA
:10000000FF0FFF0FFF0FFF0FFF0FFF0FFF0FFF0F80
:020000040030CA
:0A000000FAFD27F79FFFFFFFFFFF47
:00000001FF
